:020000020000FC
:080000000C9424000C9419007B
:10002C000C9418000CB1F8940E943A000E949200B3
:10003C005D9B0C941E001CB878940895F8940FE501
:10004C000DBF04E00EBF00EF04BB0FE005BB02E0E8
:10005C0005BF00E40BBF0CE009B908E80AB906EAD1
:10006C0000BD78940C94380013B30FE004BB00EF80
:10007C0005BB23B300EF04BB0FE005BB1E3091F4AE
:10008C00203E19F400E0002E0895203D19F404E000
:10009C00002E0895203B19F408E0002E08950CE082
:1000AC00002E08951D3091F4203E19F401E0002E2D
:1000BC000895203D19F405E0002E0895203B19F415
:1000CC0009E0002E08950DE0002E08951B3091F4E8
:1000DC00203E19F402E0002E0895203D19F406E0AC
:1000EC00002E0895203B19F40AE0002E08950EE02E
:1000FC00002E0895203E19F403E0002E0895203DB3
:10010C0019F407E0002E0895203B19F40BE0002EA3
:10011C0008950FE0002E0895002D003019F400E32F
:10012C00102E0895013019F401E3102E08950230B9
:10013C0019F402E3102E0895033019F403E3102E82
:10014C000895043019F404E3102E0895053019F4C1
:10015C0005E3102E0895063019F406E3102E0895C9
:10016C00073019F407E3102E0895083019F408E34A
:10017C00102E0895093019F409E3102E08950A3051
:10018C0019F401E4102E08950B3019F402E4102E2A
:10019C0008950C3019F403E4102E08950D3019F461
:1001AC0004E4102E08950E3019F405E4102E089571
:0601BC0006E4102E089578
:00000001FF
