:020000020000FC
:100000000C9410000C940400F8940E9426000E94A6
:100010007E000E944801112D0E94DE007894089510
:10002000F8940FE50DBF04E00EBF0FEF07BB00E033
:1000300008BB00EF04BB0FE005BB02E005BF00E416
:100040000BBF78940E9453010C94240013B30FE06B
:1000500004BB00EF05BB23B300EF04BB0FE005BBFF
:100060001E3091F4203E19F400E0002E0895203D4A
:1000700019F404E0002E0895203B19F408E0002E46
:1000800008950CE0002E08951D3091F4203E19F4DF
:1000900001E0002E0895203D19F405E0002E08959A
:1000A000203B19F409E0002E08950DE0002E08957C
:1000B0001B3091F4203E19F402E0002E0895203DFB
:1000C00019F406E0002E0895203B19F40AE0002EF2
:1000D00008950EE0002E0895203E19F403E0002E4E
:1000E0000895203D19F407E0002E0895203B19F4EF
:1000F0000BE0002E08950FE0002E0895002D003033
:1001000019F400E3102E0895013019F401E3102EC4
:100110000895023019F402E3102E0895033019F403
:1001200003E3102E0895043019F404E3102E08950B
:10013000053019F405E3102E0895063019F406E38E
:10014000102E0895073019F407E3102E0895083093
:1001500019F408E3102E0895093019F409E3102E5C
:1001600008950A3019F401E4102E08950B3019F4A3
:1001700002E4102E08950C3019F403E4102E0895B3
:100180000D3019F404E4102E08950E3019F405E42E
:10019000102E089506E4102E08950AB3006F0ABBCE
:1001A0000BB30F70107F012B0BBBDB9A000000001C
:1001B0000000DB980AB30F700ABB08951F930AB3BF
:1001C000006F0ABB0BB30170107F012B0BBBD99AD8
:1001D000DB9A000000000000DB981F910F70129561
:1001E000107F012B0BBBD99ADB9A000000000000A6
:1001F000DB98D9980AB30F700ABB08951F930AB30E
:10020000006F0ABB0BB30170107F012B0BBBDB9A95
:10021000000000000000DB981F910F701295107F06
:10022000012B0BBBDB9A000000000000DB980AB337
:100230000F700ABB08950AB30F700ABBD99ADA9AF5
:10024000DB9A000009B3007F202FDB98000000003C
:10025000DB9A000009B3007F0295202BDB98D99828
:10026000DA9808950AB30F700ABBD998DA9ADB9A24
:10027000000009B3007F202FDB9800000000DB9A0C
:10028000000009B3007F0295202BDB98DA980895CF
:10029000E9DF2078E9F70895222433243A94F1F72E
:1002A0002A94D9F708950EE00ABBF6DF10E275DF55
:1002B000EFDF18E2A3DFECDF1FE0A0DFE9DF11E0F2
:0A02C0009DDFE6DF16E09ADF0895E7
:00000001FF
