:020000020000FC
:040000000C947E00DE
:100038000C944A00452D4852469552E010E04A304B
:1000480028F01395450F4A500C942300712E642E06
:1000580000E3600E700E0E94110111E00E94C700BB
:100068000E941101172D0E94A7000E941101162D50
:100078000E94A7000FEF1FE81A951030E9F70A95BC
:100088000030C9F7062D172D78940895F894602E3E
:10009800712E07B10370033019F107B102700230F5
:1000A800A9F005B1502E052D112D011724F404E0F7
:1000B80002BB0C941E00132D011720F000E002BBB8
:1000C8000C941E0000E202BB0C941E0005B1102E19
:1000D80007B112E010950123016007B90C9446009E
:1000E80005B1302E07B111E010950123026007B960
:1000F8000C944600F89400E30FE50DBF04E00EBF32
:1001080004E201BB00E000BF03E607B908EC06B94A
:100118000E941C01789406B1006C06B900E5889528
:100128000C948F0004B3006F04BB05B30F70107FED
:10013800012B05BBAB9A000000000000AB9804B38C
:100148000F7004BB08951F9304B3006F04BB05B37D
:100158000170107F012B05BBA99AAB9A0000000023
:100168000000AB981F910F701295107F012B05BBF3
:10017800A99AAB9A000000000000AB98A99804B3B4
:100188000F7004BB08951F9304B3006F04BB05B33D
:100198000170107F012B05BBAB9A00000000000026
:1001A800AB981F910F701295107F012B05BBAB9A6E
:1001B800000000000000AB9804B30F7004BB089562
:1001C80004B30F7004BBA99AAA9AAB9A000003B3B0
:1001D800007F202FAB9800000000AB9A000003B30B
:1001E800007F0295202BAB98A998AA98089504B38C
:1001F8000F7004BBA998AA9AAB9A000003B3007FBA
:10020800202FAB9800000000AB9A000003B3007FDA
:100218000295202BAB98AA980895E9DF2078E9F792
:100228000895222433243A94F1F72A94D9F70895AB
:100238000EE004BBF6DF10E275DFEFDF18E2A3DFA4
:10024800ECDF1FE0A0DFE9DF11E09DDFE6DF16E06D
:040258009ADF08958C
:00000001FF
