:020000020000FC
:100000000C940B000C940400F8940E941F000E94B2
:10001000770078940895F8940FE50DBF04E00EBFC3
:100020000FEF07BB00E008BB00EF04BB0FE005BB10
:1000300002E005BF00E40BBF78940395FECF13B335
:100040000FE004BB00EF05BB23B300EF04BB0FE0E0
:1000500005BB1E3091F4203E19F400E0002E0895F7
:10006000203D19F404E0002E0895203B19F408E027
:10007000002E08950CE0002E08951D3091F4203ECE
:1000800019F401E0002E0895203D19F405E0002E3A
:100090000895203B19F409E0002E08950DE0002E8C
:1000A00008951B3091F4203E19F402E0002E0895CB
:1000B000203D19F406E0002E0895203B19F40AE0D3
:1000C000002E08950EE0002E0895203E19F403E05E
:1000D000002E0895203D19F407E0002E0895203BDE
:1000E00019F40BE0002E08950FE0002E0895002D66
:1000F000003019F40FE308BB0895013019F406E04D
:1001000008BB0895023019F40BE508BB08950330CD
:1001100019F40FE408BB0895043019F406E608BB8F
:100120000895053019F40DE608BB0895063019F45A
:100130000DE708BB0895073019F407E008BB0895E0
:10014000083019F40FE708BB0895093019F40FE6D9
:1001500008BB08950A3019F407E708BB08950B306F
:1001600019F40CE708BB08950C3019F401E608BB3C
:1001700008950D3019F40EE508BB08950E3019F4FA
:0C01800009E708BB089501E708BB0895DB
:00000001FF
